{
    "contractName": "SafeContract",
    "abi": [
        {
            "inputs": [],
            "stateMutability": "nonpayable",
            "type": "constructor"
        },
        {
            "anonymous": false,
            "inputs": [
                {
                    "indexed": true,
                    "internalType": "address",
                    "name": "walletAddress",
                    "type": "address"
                },
                {
                    "indexed": false,
                    "internalType": "uint256",
                    "name": "amount",
                    "type": "uint256"
                }
            ],
            "name": "BalanceWithdrawn",
            "type": "event"
        },
        {
            "anonymous": false,
            "inputs": [
                {
                    "indexed": true,
                    "internalType": "address",
                    "name": "walletAddress",
                    "type": "address"
                },
                {
                    "indexed": false,
                    "internalType": "uint256",
                    "name": "amount",
                    "type": "uint256"
                }
            ],
            "name": "Deposit",
            "type": "event"
        },
        {
            "anonymous": false,
            "inputs": [
                {
                    "indexed": true,
                    "internalType": "address",
                    "name": "walletAddress",
                    "type": "address"
                },
                {
                    "indexed": false,
                    "internalType": "string",
                    "name": "name",
                    "type": "string"
                },
                {
                    "indexed": false,
                    "internalType": "string",
                    "name": "lastName",
                    "type": "string"
                }
            ],
            "name": "UserAdded",
            "type": "event"
        },
        {
            "inputs": [
                {
                    "internalType": "address",
                    "name": "_newOwner",
                    "type": "address"
                }
            ],
            "name": "setOwner",
            "outputs": [],
            "stateMutability": "nonpayable",
            "type": "function"
        },
        {
            "inputs": [
                {
                    "internalType": "string",
                    "name": "name",
                    "type": "string"
                },
                {
                    "internalType": "string",
                    "name": "lastName",
                    "type": "string"
                }
            ],
            "name": "addUser",
            "outputs": [],
            "stateMutability": "nonpayable",
            "type": "function"
        },
        {
            "inputs": [
                {
                    "internalType": "uint256",
                    "name": "_lockTime",
                    "type": "uint256"
                }
            ],
            "name": "lock",
            "outputs": [],
            "stateMutability": "payable",
            "type": "function",
            "payable": true
        },
        {
            "inputs": [],
            "name": "unlock",
            "outputs": [],
            "stateMutability": "nonpayable",
            "type": "function"
        },
        {
            "inputs": [],
            "name": "getOwner",
            "outputs": [
                {
                    "internalType": "address",
                    "name": "",
                    "type": "address"
                }
            ],
            "stateMutability": "view",
            "type": "function",
            "constant": true
        },
        {
            "inputs": [],
            "name": "getUser",
            "outputs": [
                {
                    "components": [
                        {
                            "internalType": "address",
                            "name": "walletAddress",
                            "type": "address"
                        },
                        {
                            "internalType": "string",
                            "name": "name",
                            "type": "string"
                        },
                        {
                            "internalType": "string",
                            "name": "lastName",
                            "type": "string"
                        },
                        {
                            "internalType": "bool",
                            "name": "doLock",
                            "type": "bool"
                        },
                        {
                            "internalType": "uint256",
                            "name": "reward",
                            "type": "uint256"
                        },
                        {
                            "internalType": "uint256",
                            "name": "tokenAmount",
                            "type": "uint256"
                        },
                        {
                            "internalType": "uint256",
                            "name": "startTime",
                            "type": "uint256"
                        },
                        {
                            "internalType": "uint256",
                            "name": "lockTime",
                            "type": "uint256"
                        }
                    ],
                    "internalType": "struct SafeContract.User",
                    "name": "",
                    "type": "tuple"
                }
            ],
            "stateMutability": "view",
            "type": "function",
            "constant": true
        },
        {
            "inputs": [],
            "name": "getReward",
            "outputs": [
                {
                    "internalType": "uint256",
                    "name": "",
                    "type": "uint256"
                }
            ],
            "stateMutability": "view",
            "type": "function",
            "constant": true
        }
    ],
    "bytecode": "0x608060405234801561001057600080fd5b50600160008190555033600260006101000a81548173ffffffffffffffffffffffffffffffffffffffff021916908373ffffffffffffffffffffffffffffffffffffffff16021790555061203b806100696000396000f3fe6080604052600436106100705760003560e01c8063832880e71161004e578063832880e7146100f2578063893d20e81461011d578063a69df4b514610148578063dd4670641461015f57610070565b8063079eaf341461007557806313af40351461009e5780633d18b912146100c7575b600080fd5b34801561008157600080fd5b5061009c60048036038101906100979190611410565b61017b565b005b3480156100aa57600080fd5b506100c560048036038101906100c091906113e3565b610486565b005b3480156100d357600080fd5b506100dc61055a565b6040516100e99190611a49565b60405180910390f35b3480156100fe57600080fd5b5061010761070e565b6040516101149190611a27565b60405180910390f35b34801561012957600080fd5b5061013261096b565b60405161013f9190611855565b60405180910390f35b34801561015457600080fd5b5061015d610995565b005b61017960048036038101906101749190611491565b610e22565b005b6101843361108d565b156101c4576040517f08c379a00000000000000000000000000000000000000000000000000000000081526004016101bb90611967565b60405180910390fd5b6040518061010001604052803373ffffffffffffffffffffffffffffffffffffffff16815260200185858080601f016020809104026020016040519081016040528093929190818152602001838380828437600081840152601f19601f82011690508083019250505050505050815260200183838080601f016020809104026020016040519081016040528093929190818152602001838380828437600081840152601f19601f8201169050808301925050505050505081526020016000151581526020016000815260200160008152602001600081526020016000815250600360003373ffffffffffffffffffffffffffffffffffffffff1673ffffffffffffffffffffffffffffffffffffffff16815260200190815260200160002060008201518160000160006101000a81548173ffffffffffffffffffffffffffffffffffffffff021916908373ffffffffffffffffffffffffffffffffffffffff1602179055506020820151816001019080519060200190610345929190611263565b506040820151816002019080519060200190610362929190611263565b5060608201518160030160006101000a81548160ff0219169083151502179055506080820151816004015560a0820151816005015560c0820151816006015560e082015181600701559050503373ffffffffffffffffffffffffffffffffffffffff167f8eab1db142a914aff8b515eedb9177bd7effaef6d714c41e30bdf15206778607600360003373ffffffffffffffffffffffffffffffffffffffff1673ffffffffffffffffffffffffffffffffffffffff168152602001908152602001600020600101600360003373ffffffffffffffffffffffffffffffffffffffff1673ffffffffffffffffffffffffffffffffffffffff168152602001908152602001600020600201604051610478929190611870565b60405180910390a250505050565b600260009054906101000a900473ffffffffffffffffffffffffffffffffffffffff1673ffffffffffffffffffffffffffffffffffffffff163373ffffffffffffffffffffffffffffffffffffffff1614610516576040517f08c379a000000000000000000000000000000000000000000000000000000000815260040161050d906118a7565b60405180910390fd5b80600260006101000a81548173ffffffffffffffffffffffffffffffffffffffff021916908373ffffffffffffffffffffffffffffffffffffffff16021790555050565b60006105653361108d565b6105a4576040517f08c379a000000000000000000000000000000000000000000000000000000000815260040161059b906119c7565b60405180910390fd5b600360003373ffffffffffffffffffffffffffffffffffffffff1673ffffffffffffffffffffffffffffffffffffffff16815260200190815260200160002060030160009054906101000a900460ff16610633576040517f08c379a000000000000000000000000000000000000000000000000000000000815260040161062a90611907565b60405180910390fd5b61063b611128565b1561067b576040517f08c379a000000000000000000000000000000000000000000000000000000000815260040161067290611a07565b60405180910390fd5b610709600360003373ffffffffffffffffffffffffffffffffffffffff1673ffffffffffffffffffffffffffffffffffffffff16815260200190815260200160002060070154600360003373ffffffffffffffffffffffffffffffffffffffff1673ffffffffffffffffffffffffffffffffffffffff168152602001908152602001600020600501546111e7565b905090565b6107166112e9565b61071f3361108d565b61075e576040517f08c379a0000000000000000000000000000000000000000000000000000000008152600401610755906119a7565b60405180910390fd5b600360003373ffffffffffffffffffffffffffffffffffffffff1673ffffffffffffffffffffffffffffffffffffffff168152602001908152602001600020604051806101000160405290816000820160009054906101000a900473ffffffffffffffffffffffffffffffffffffffff1673ffffffffffffffffffffffffffffffffffffffff1673ffffffffffffffffffffffffffffffffffffffff16815260200160018201805461080f90611c41565b80601f016020809104026020016040519081016040528092919081815260200182805461083b90611c41565b80156108885780601f1061085d57610100808354040283529160200191610888565b820191906000526020600020905b81548152906001019060200180831161086b57829003601f168201915b505050505081526020016002820180546108a190611c41565b80601f01602080910402602001604051908101604052809291908181526020018280546108cd90611c41565b801561091a5780601f106108ef5761010080835404028352916020019161091a565b820191906000526020600020905b8154815290600101906020018083116108fd57829003601f168201915b505050505081526020016003820160009054906101000a900460ff16151515158152602001600482015481526020016005820154815260200160068201548152602001600782015481525050905090565b6000600260009054906101000a900473ffffffffffffffffffffffffffffffffffffffff16905090565b61099d611209565b6109a63361108d565b6109e5576040517f08c379a00000000000000000000000000000000000000000000000000000000081526004016109dc906119a7565b60405180910390fd5b6000600360003373ffffffffffffffffffffffffffffffffffffffff1673ffffffffffffffffffffffffffffffffffffffff16815260200190815260200160002060050154905060008111610a6f576040517f08c379a0000000000000000000000000000000000000000000000000000000008152600401610a6690611927565b60405180910390fd5b600360003373ffffffffffffffffffffffffffffffffffffffff1673ffffffffffffffffffffffffffffffffffffffff16815260200190815260200160002060030160009054906101000a900460ff16610afe576040517f08c379a0000000000000000000000000000000000000000000000000000000008152600401610af5906118e7565b60405180910390fd5b610b06611128565b610b45576040517f08c379a0000000000000000000000000000000000000000000000000000000008152600401610b3c90611947565b60405180910390fd5b610b91600360003373ffffffffffffffffffffffffffffffffffffffff1673ffffffffffffffffffffffffffffffffffffffff16815260200190815260200160002060070154826111e7565b600360003373ffffffffffffffffffffffffffffffffffffffff1673ffffffffffffffffffffffffffffffffffffffff1681526020019081526020016000206004016000828254610be29190611ab1565b925050819055506000600360003373ffffffffffffffffffffffffffffffffffffffff1673ffffffffffffffffffffffffffffffffffffffff1681526020019081526020016000206005018190555060003373ffffffffffffffffffffffffffffffffffffffff1682604051610c5790611840565b60006040518083038185875af1925050503d8060008114610c94576040519150601f19603f3d011682016040523d82523d6000602084013e610c99565b606091505b5050905080610cdd576040517f08c379a0000000000000000000000000000000000000000000000000000000008152600401610cd4906118c7565b60405180910390fd5b6000600360003373ffffffffffffffffffffffffffffffffffffffff1673ffffffffffffffffffffffffffffffffffffffff168152602001908152602001600020600701819055506000600360003373ffffffffffffffffffffffffffffffffffffffff1673ffffffffffffffffffffffffffffffffffffffff16815260200190815260200160002060030160006101000a81548160ff0219169083151502179055506000600360003373ffffffffffffffffffffffffffffffffffffffff1673ffffffffffffffffffffffffffffffffffffffff168152602001908152602001600020600601819055503373ffffffffffffffffffffffffffffffffffffffff167fddc398b321237a8d40ac914388309c2f52a08c134e4dc4ce61e32f57cb7d80f183604051610e0e9190611a49565b60405180910390a25050610e20611259565b565b610e2b3361108d565b610e6a576040517f08c379a0000000000000000000000000000000000000000000000000000000008152600401610e61906119a7565b60405180910390fd5b600360003373ffffffffffffffffffffffffffffffffffffffff1673ffffffffffffffffffffffffffffffffffffffff16815260200190815260200160002060030160009054906101000a900460ff1615610efa576040517f08c379a0000000000000000000000000000000000000000000000000000000008152600401610ef190611987565b60405180910390fd5b42600360003373ffffffffffffffffffffffffffffffffffffffff1673ffffffffffffffffffffffffffffffffffffffff1681526020019081526020016000206006018190555034600360003373ffffffffffffffffffffffffffffffffffffffff1673ffffffffffffffffffffffffffffffffffffffff1681526020019081526020016000206005016000828254610f939190611ab1565b9250508190555080600360003373ffffffffffffffffffffffffffffffffffffffff1673ffffffffffffffffffffffffffffffffffffffff168152602001908152602001600020600701819055506001600360003373ffffffffffffffffffffffffffffffffffffffff1673ffffffffffffffffffffffffffffffffffffffff16815260200190815260200160002060030160006101000a81548160ff0219169083151502179055503373ffffffffffffffffffffffffffffffffffffffff167fe1fffcc4923d04b559f4d29a8bfc6cda04eb5b0d3c460751c2402c5c5cc9109c346040516110829190611a49565b60405180910390a250565b60008073ffffffffffffffffffffffffffffffffffffffff16600360008473ffffffffffffffffffffffffffffffffffffffff1673ffffffffffffffffffffffffffffffffffffffff16815260200190815260200160002060000160009054906101000a900473ffffffffffffffffffffffffffffffffffffffff1673ffffffffffffffffffffffffffffffffffffffff1614159050919050565b600080600360003373ffffffffffffffffffffffffffffffffffffffff1673ffffffffffffffffffffffffffffffffffffffff16815260200190815260200160002060060154426111799190611b92565b90506000603c8261118a9190611b07565b9050600360003373ffffffffffffffffffffffffffffffffffffffff1673ffffffffffffffffffffffffffffffffffffffff168152602001908152602001600020600701548110156111dd5760006111e0565b60015b9250505090565b60006004826111f69190611b07565b836112019190611b38565b905092915050565b6002600054141561124f576040517f08c379a0000000000000000000000000000000000000000000000000000000008152600401611246906119e7565b60405180910390fd5b6002600081905550565b6001600081905550565b82805461126f90611c41565b90600052602060002090601f01602090048101928261129157600085556112d8565b82601f106112aa57805160ff19168380011785556112d8565b828001600101855582156112d8579182015b828111156112d75782518255916020019190600101906112bc565b5b5090506112e59190611346565b5090565b604051806101000160405280600073ffffffffffffffffffffffffffffffffffffffff1681526020016060815260200160608152602001600015158152602001600081526020016000815260200160008152602001600081525090565b5b8082111561135f576000816000905550600101611347565b5090565b60008135905061137281611fd7565b92915050565b60008083601f84011261138e5761138d611d05565b5b8235905067ffffffffffffffff8111156113ab576113aa611d00565b5b6020830191508360018202830111156113c7576113c6611d0a565b5b9250929050565b6000813590506113dd81611fee565b92915050565b6000602082840312156113f9576113f8611d14565b5b600061140784828501611363565b91505092915050565b6000806000806040858703121561142a57611429611d14565b5b600085013567ffffffffffffffff81111561144857611447611d0f565b5b61145487828801611378565b9450945050602085013567ffffffffffffffff81111561147757611476611d0f565b5b61148387828801611378565b925092505092959194509250565b6000602082840312156114a7576114a6611d14565b5b60006114b5848285016113ce565b91505092915050565b6114c781611bc6565b82525050565b6114d681611bc6565b82525050565b6114e581611bd8565b82525050565b60006114f682611a79565b6115008185611a8f565b9350611510818560208601611c0e565b61151981611d19565b840191505092915050565b6000815461153181611c41565b61153b8186611aa0565b9450600182166000811461155657600181146115685761159b565b60ff198316865260208601935061159b565b61157185611a64565b60005b8381101561159357815481890152600182019150602081019050611574565b808801955050505b50505092915050565b60006115b1602583611aa0565b91506115bc82611d2a565b604082019050919050565b60006115d4600f83611aa0565b91506115df82611d79565b602082019050919050565b60006115f7601b83611aa0565b915061160282611da2565b602082019050919050565b600061161a602483611aa0565b915061162582611dcb565b604082019050919050565b600061163d602083611aa0565b915061164882611e1a565b602082019050919050565b6000611660602283611aa0565b915061166b82611e43565b604082019050919050565b6000611683601483611aa0565b915061168e82611e92565b602082019050919050565b60006116a6601783611aa0565b91506116b182611ebb565b602082019050919050565b60006116c9601483611aa0565b91506116d482611ee4565b602082019050919050565b60006116ec602383611aa0565b91506116f782611f0d565b604082019050919050565b600061170f600083611a84565b915061171a82611f5c565b600082019050919050565b6000611732601f83611aa0565b915061173d82611f5f565b602082019050919050565b6000611755602e83611aa0565b915061176082611f88565b604082019050919050565b60006101008301600083015161178460008601826114be565b506020830151848203602086015261179c82826114eb565b915050604083015184820360408601526117b682826114eb565b91505060608301516117cb60608601826114dc565b5060808301516117de6080860182611822565b5060a08301516117f160a0860182611822565b5060c083015161180460c0860182611822565b5060e083015161181760e0860182611822565b508091505092915050565b61182b81611c04565b82525050565b61183a81611c04565b82525050565b600061184b82611702565b9150819050919050565b600060208201905061186a60008301846114cd565b92915050565b6000604082019050818103600083015261188a8185611524565b9050818103602083015261189e8184611524565b90509392505050565b600060208201905081810360008301526118c0816115a4565b9050919050565b600060208201905081810360008301526118e0816115c7565b9050919050565b60006020820190508181036000830152611900816115ea565b9050919050565b600060208201905081810360008301526119208161160d565b9050919050565b6000602082019050818103600083015261194081611630565b9050919050565b6000602082019050818103600083015261196081611653565b9050919050565b6000602082019050818103600083015261198081611676565b9050919050565b600060208201905081810360008301526119a081611699565b9050919050565b600060208201905081810360008301526119c0816116bc565b9050919050565b600060208201905081810360008301526119e0816116df565b9050919050565b60006020820190508181036000830152611a0081611725565b9050919050565b60006020820190508181036000830152611a2081611748565b9050919050565b60006020820190508181036000830152611a41818461176b565b905092915050565b6000602082019050611a5e6000830184611831565b92915050565b60008190508160005260206000209050919050565b600081519050919050565b600081905092915050565b600082825260208201905092915050565b600082825260208201905092915050565b6000611abc82611c04565b9150611ac783611c04565b9250827fffffffffffffffffffffffffffffffffffffffffffffffffffffffffffffffff03821115611afc57611afb611c73565b5b828201905092915050565b6000611b1282611c04565b9150611b1d83611c04565b925082611b2d57611b2c611ca2565b5b828204905092915050565b6000611b4382611c04565b9150611b4e83611c04565b9250817fffffffffffffffffffffffffffffffffffffffffffffffffffffffffffffffff0483118215151615611b8757611b86611c73565b5b828202905092915050565b6000611b9d82611c04565b9150611ba883611c04565b925082821015611bbb57611bba611c73565b5b828203905092915050565b6000611bd182611be4565b9050919050565b60008115159050919050565b600073ffffffffffffffffffffffffffffffffffffffff82169050919050565b6000819050919050565b60005b83811015611c2c578082015181840152602081019050611c11565b83811115611c3b576000848401525b50505050565b60006002820490506001821680611c5957607f821691505b60208210811415611c6d57611c6c611cd1565b5b50919050565b7f4e487b7100000000000000000000000000000000000000000000000000000000600052601160045260246000fd5b7f4e487b7100000000000000000000000000000000000000000000000000000000600052601260045260246000fd5b7f4e487b7100000000000000000000000000000000000000000000000000000000600052602260045260246000fd5b600080fd5b600080fd5b600080fd5b600080fd5b600080fd5b6000601f19601f8301169050919050565b7f4f6e6c7920746865206f776e65722063616e2063616c6c20746869732066756e60008201527f6374696f6e000000000000000000000000000000000000000000000000000000602082015250565b7f5472616e73666572206661696c65640000000000000000000000000000000000600082015250565b7f5573657220686173206e6f7420616e20616374697665206c6f636b0000000000600082015250565b7f5573657220686173206e6f7420616e20616374697665206c6f636b20746f206360008201527f6865636b00000000000000000000000000000000000000000000000000000000602082015250565b7f496e73756666696369656e742062616c616e636520746f207769746864726177600082015250565b7f546865207370656369666965642074696d6520686173206e6f7420657870697260008201527f6564000000000000000000000000000000000000000000000000000000000000602082015250565b7f5573657220616c7265616479206578697374732e000000000000000000000000600082015250565b7f557365722068617320616e20616374697665206c6f636b000000000000000000600082015250565b7f5573657220646f6573206e6f7420657869737421000000000000000000000000600082015250565b7f5265776172642063616e6e6f74206265207365656e2062792061206e6f6e2d7560008201527f7365720000000000000000000000000000000000000000000000000000000000602082015250565b50565b7f5265656e7472616e637947756172643a207265656e7472616e742063616c6c00600082015250565b7f54696d652069732075702c206e6f206d6f726520726577617264732077696c6c60008201527f2062652063616c63756c61746564000000000000000000000000000000000000602082015250565b611fe081611bc6565b8114611feb57600080fd5b50565b611ff781611c04565b811461200257600080fd5b5056fea2646970667358221220fbb43030f875bc4775ef7ba4839ed57e767def2cfc19b37bba003e2d49567e8864736f6c63430008070033",
    "immutableReferences": {},
    "source": "// SPDX-License-Identifier: MIT\npragma solidity ^0.8.7;\nimport \"../../node_modules/@openzeppelin/contracts/utils/Counters.sol\";\nimport \"../../node_modules/@openzeppelin/contracts/security/ReentrancyGuard.sol\";\n\ncontract SafeContract is ReentrancyGuard {\n  \n  using Counters for Counters.Counter;\n  Counters.Counter private _counter;\n\n  address private owner;\n\n  //Structs\n  //Unique compartment for each user that is going to be defined.\n  struct User{\n    address walletAddress;\n    string name;\n    string lastName;\n    bool doLock;\n    uint reward;\n    uint tokenAmount;\n    uint startTime;\n    uint lockTime; // as minutes\n  }\n\n  //Events\n  event UserAdded(address indexed walletAddress, string name, string lastName);\n  event Deposit(address indexed walletAddress, uint amount);\n  event BalanceWithdrawn(address indexed walletAddress, uint amount);\n\n  //Mappings\n  //Lists individual compartments of users.\n  mapping(address => User) private users;\n\n  constructor() {\n    owner = msg.sender;\n  }\n\n  //MODIFIERS\n  modifier onlyOwner() {\n    require(msg.sender == owner, \"Only the owner can call this function\");\n    _;\n  }\n\n  //FUNCTIONS\n  //Execute Functions\n\n  //Sets a new owner.\n  function setOwner(address _newOwner) external onlyOwner {\n    owner = _newOwner;\n  }\n\n  //Defines a user.\n  function addUser(string calldata name, string calldata lastName) external {\n    require(!isUser(msg.sender), \"User already exists.\");\n    users[msg.sender] = User(msg.sender, name, lastName, false, 0, 0, 0, 0);\n\n    emit UserAdded(msg.sender, users[msg.sender].name, users[msg.sender].lastName);\n  }\n\n  //Locks token, starts the time, and changes user's lock state to true, after security checks that ensures user is defined and has not a active lock.\n  function lock(uint _lockTime) external payable {\n    require(isUser(msg.sender), \"User does not exist!\");  \n    require(!users[msg.sender].doLock, \"User has an active lock\");\n\n    users[msg.sender].startTime = block.timestamp;\n    users[msg.sender].tokenAmount += msg.value;\n    users[msg.sender].lockTime = _lockTime;\n    users[msg.sender].doLock = true;\n\n    emit Deposit(msg.sender, msg.value);\n  }\n\n  //Unlocks token by allowing user to withdraw and updating the user's relevant values to default,\n  //after security checks that ensures the user is defined, has sufficient balance (token amount),\n  //has an active lock, and time has expired to be able to unlock.\n  function unlock() external nonReentrant {\n    require(isUser(msg.sender), \"User does not exist!\");  \n    uint tokenAmount = users[msg.sender].tokenAmount;\n    require(tokenAmount > 0, \"Insufficient balance to withdraw\");\n    require(users[msg.sender].doLock, \"User has not an active lock\");\n    require(isDeadline(), \"The specified time has not expired\");\n\n    users[msg.sender].reward += calculateReward(users[msg.sender].lockTime, tokenAmount);\n    users[msg.sender].tokenAmount = 0;\n\n    (bool success, ) = msg.sender.call{value: tokenAmount}(\"\");\n    require(success, \"Transfer failed\");\n\n    users[msg.sender].lockTime = 0;\n    users[msg.sender].doLock = false;\n    users[msg.sender].startTime = 0;\n\n    emit BalanceWithdrawn(msg.sender, tokenAmount);\n\n  }\n\n  //Calculates reward amount through the token amount and lockTime defined by user.\n  function calculateReward(uint lockedMinutes, uint amount) private pure returns(uint) {\n    return lockedMinutes * (amount / 4);\n  }\n\n  //Query Functions\n\n  //Gets owner.\n  function getOwner() external view returns (address) {\n    return owner;\n  }\n\n  //Checks if user is defined.\n  function isUser(address walletAddress) private view returns(bool) {\n    return users[walletAddress].walletAddress != address(0);\n  }\n\n  //Calculates whether the defined period has expired, and returns a boolean.\n  function isDeadline() private view returns(bool) {      \n    uint lockedSeconds = block.timestamp - users[msg.sender].startTime;\n    uint lockedMinutes = lockedSeconds / 60;\n\n    return lockedMinutes >= users[msg.sender].lockTime ? true : false;   \n  }\n\n  //Gets existing user if so.\n  function getUser() external view returns(User memory) {\n    require(isUser(msg.sender), \"User does not exist!\");\n    return users[msg.sender];\n  }\n\n  //Gets the reward amount after security checks that ensures user is defined, has locked token, and the time has not run out.\n  function getReward() external view returns(uint) {\n    require(isUser(msg.sender), \"Reward cannot be seen by a non-user\");\n    require(users[msg.sender].doLock, \"User has not an active lock to check\");\n    require(!isDeadline(), \"Time is up, no more rewards will be calculated\");\n\n    return calculateReward(users[msg.sender].lockTime, users[msg.sender].tokenAmount);\n  }\n\n}\n",
    "sourcePath": "C:\\Users\\Beyzanur\\Desktop\\FinalProject\\contracts\\bsc\\SafeContract.sol",
    "compiler": {
        "name": "solc",
        "version": "0.8.7+commit.e28d00a7.Emscripten.clang"
    },
    "schemaVersion": "3.4.15",
    "updatedAt": "2023-10-02T20:44:47.310Z",
    "networkType": "ethereum",
    "devdoc": {
        "kind": "dev",
        "methods": {},
        "version": 1
    },
    "userdoc": {
        "kind": "user",
        "methods": {},
        "version": 1
    },
    "db": {
        "callBytecode": {
            "id": "0xa8f6fb35c8d5deae9d07b8ffda88487375b4bb2ccd60ecad447789f97971e792"
        },
        "createBytecode": {
            "id": "0x2e431986aabdb1350af3fd054a6c8e8348daf8a87d18a9c743a13861ab153499"
        },
        "contract": {
            "id": "0x1ae9590d726325da6308dc34e867b449056a30cd6bbe6c36cc18e090c6c2d7a1"
        }
    }
}